:020000040000FA
:043300008EEF19F043
:0433080084EF15F049
:083318008CEF15F0960E126E09
:10332000F86A0790068A760EF66E330EF76E07EE91
:1033300000F0B4EC19F000B299EF1BF000B423EFE9
:103340001AF000B86AEF1EF000B6CEEF1FF08AEC5C
:1033500015F0DCEC19F01E50202404E2222402E2D5
:10336000060FE9E34FEF24F0100E0900F5CFEEFF52
:10337000E82EFBD712001808080808E721E781E7C4
:1033800000282838080817EE20F005D017EE10F0B6
:1033900002D017EE00F0E66AE66AE66AE66AE66AD6
:1033A000E66AE66AE66AE66AE66AE66AE66AE66A9D
:1033B000E66AE66AE66A120019EC1AF019EC1AF0ED
:1033C00019EC1AF019EC1AF019EC1AF019EC1AF0C1
:1033D0001FA209D01E6C1F50030B030AD8A41E683D
:1033E000010E1F6E05D01F50030BD8A41E681F6A64
:1033F00021A209D0206C2150030B030AD8A4206815
:10340000010E216E05D02150030BD8A42068216A3B
:1034100023A209D0226C2350030B030AD8A42268EC
:10342000010E236E05D02350030BD8A42268236A13
:103430001200D8901F321E32D89021322032D890FC
:103440002332223212000701A66A068A366A006A0F
:10345000C9EC19F0C6EC19F00C0E0F6F16C030F75E
:103460001BC031F717C032F71BC033F786EC15F0DD
:10347000070BFCE02A6E86EC15F0070BFCE02B6EC8
:103480002A18F9E086EC15F0070BFCE02C6E2A18E0
:10349000F9E02C502B18F6E086EC15F0070BFCE059
:1034A0002D6E2A18F9E02D502B18F6E02D502C180F
:1034B000F3E02EEC1BF006A415D00694322A32500D
:1034C0001F0B10E10C0E0F6F32AA0CD03350D8B482
:1034D0000F8FFF0FD8B40F8DFF0FD8B40F8BFF0FD6
:1034E000D8B40F89070E2E162F163016311620EE7F
:1034F0002EF03350D92600A406D00094DF2ADFB680
:10350000DF062EEC1BF000A608D00096DF06D8B42C
:10351000DF2ADFBEDF2A2EEC1BF000A204D00092CF
:10352000330633BE332A00A803D00098332A33A4CD
:103530005BEF1AF033062E52FBE02F52F9E03052C7
:10354000F7E03152F5E0336A356A346A2A502E6268
:1035500002D0352A0BD02F6202D0342A07D0306235
:1035600002D0342A03D0316201D0342A2B502F628A
:1035700002D0352A0BD02E6202D0342A07D0306216
:1035800002D0342A03D0316201D0342A2C50306268
:1035900002D0352A0BD02E6202D0342A07D02F62F7
:1035A00002D0342A03D0316201D0342A2D50316246
:1035B00002D0352A0BD02E6202D0342A07D02F62D7
:1035C00002D0342A03D0306201D0342A2E6A2F6A06
:1035D000306A316A35B00C8335B20D8335B40E8351
:1035E00034B00C8134B20D8134B40E81040E3562D6
:1035F00002D051EF1BF0362A060E36606DEF1BF03D
:103600000F0E0F17040E146E0C0E156E06A4FED7C7
:103610000694152EFBD701C700F702C701F703C7B1
:1036200002F704C703F705C704F706C705F707C77E
:1036300006F708C707F709C708F70AC709F70BC74E
:103640000AF70CC70BF70DC70CF70EC70DF70FC71E
:103650000EF70F6B142ED8D75BEF1AF00C6B0D6BB7
:103660000E6B2EB00C8F2EB20D8F2EB40E8F2FB08E
:103670000C8D2FB20D8D2FB40E8D30B00C8B30B25F
:103680000D8B30B40E8B31B00C8931B20D8931B451
:103690000E89120086EC15F030513119322533199C
:1036A00012000F0E0F1706EE00F0BE0EF66E430E60
:1036B000F76ED7EC21F0550EEE6E440EEE6E0D0E49
:1036C000146EC2EC21F0EE6ECEEC21F0EE6ECEEC7C
:1036D00021F0EE6EEE6A83EF21F0100E146E100EE4
:1036E000156E06A4FED70694152EFBD70EC70FF74E
:1036F0000DC70EF70CC70DF70BC70CF70AC70BF772
:1037000009C70AF708C709F707C708F706C707F781
:1037100005C706F704C705F703C704F702C703F791
:1037200001C702F700C701F7006B142ED8D723EFAB
:103730001AF0079E100E3B6EC9EC19F0436A010E99
:103740003C6E3D6A3E6A3F6A010E406EAEEC1DF073
:103750000701A66A068AC9EC19F03A6A00EE2AF057
:10376000200EEE6EEE6EEE6EEE6EEE6EEE6EEE6EA7
:10377000EE6EEE6EEE6EEE6EEE6EEE6EEE6EEE6E69
:10378000EE6E63EC1DF06AEC1DF003B01CD029EC6A
:103790001DF0200A09E0200A390A08E0390A5A0A0D
:1037A00007E05A0A010F05D0300E03D0410E01D0B8
:1037B000200EEF6EC8EC1CF063EC1DF0BDEC1DF0AC
:1037C000D8B018EF1CF004B01CD029EC1DF0200A72
:1037D0000DE0200A300A06E0300A410A05E0410AFD
:1037E000FF0F05D0200E03D0390E01D05A0EEF6E18
:1037F0008BEC1CF063EC1DF0BDEC1DF0D8B018EFA5
:103800001CF000A208D000923A5205E03A062FECD4
:103810001DF0C3EF1BF000A809D000983B043A60EC
:1038200005D03A2A05EC1DF0C3EF1BF0C3EF1BF0E7
:10383000432A4350050AD8B461EF1CF0000E006F14
:10384000E90E016FAA0E026FAC0E036FAA0E046F91
:10385000E90E056F000E066F000E076F780E156EED
:1038600006A4FED70694152EFBD7100E146E080E74
:10387000156E06A4FED70694152EFBD701C700F7D8
:1038800002C701F703C702F704C703F705C704F728
:1038900006C705F707C706F708C707F709C708F7F8
:1038A0000AC709F70BC70AF70CC70BF70DC70CF7C8
:1038B0000EC70DF70FC70EF70F6B142ED8D79FEF5B
:1038C0001BF0000E086F000E096FE90E0A6FAA0EBA
:1038D0000B6FAC0E0C6FAA0E0D6FE90E0E6F000E83
:1038E0000F6F06EE00F0BE0EF66E430EF76ED7ECCD
:1038F00021F0520EEE6E450EEE6E110E146EC2ECFD
:1039000021F0EE6ECEEC21F0EE6ECEEC21F0EE6EFC
:10391000EE6A83EF21F0E5EC21F0B0EC1CF0B0ECA6
:103920001CF0B0EC1CF040C70FF7B0EC1CF041C726
:103930000FF7B0EC1CF042C70FF7B0EC1CF043C718
:103940000FF7B0EC1CF044C70FF7B0EC1CF045C704
:103950000FF7B0EC1CF046C70FF7B0EC1CF01200EC
:10396000060E156E6AEC1DF0152EFCD708C707F77A
:1039700009C708F70AC709F70BC70AF70CC70BF7FF
:103980000DC70CF70EC70DF70FC70EF70F6B120020
:10399000E5EC21F0EDEC1CF0EDEC1CF0EDEC1CF096
:1039A00046C707F7EDEC1CF045C707F7EDEC1CF038
:1039B00044C707F7EDEC1CF043C707F7EDEC1CF02C
:1039C00042C707F7EDEC1CF041C707F7EDEC1CF020
:1039D00040C707F7EDEC1CF01200060E156E6AECFE
:1039E0001DF0152EFCD70EC70FF70DC70EF70CC72D
:1039F0000DF70BC70CF70AC70BF709C70AF708C77B
:103A000009F707C708F7076B120029EC1DF0E5EC72
:103A100021F040374137423743374437453746373F
:103A2000070E146E403708374137093742370A37D7
:103A300043370B3744370C3745370D3746370E378A
:103A4000060E156E6AEC1DF0152EFCD7142EEAD763
:103A50001200EA6A3A502A0FE96EEF50120029EC80
:103A60001DF0EF50E5EC21F0403341334233433356
:103A7000443345334633070E146E40330833413325
:103A8000093342330A3343330B3344330C33453366
:103A90000D3346330E33060E156E6AEC1DF0152EEF
:103AA000FCD7142EEAD7120040C708F741C709F720
:103AB00042C70AF743C70BF744C70CF745C70DF7D2
:103AC00046C70EF7120029EC1DF0E5EC21F054EC8E
:103AD0001DF0120006A4FED7069407BE12003C0695
:103AE000D8A412001E0E3C6ED8903F363E363D36AE
:103AF000000ED8B0180E036F046F400640AE0AD017
:103B00008BEC1DF0096EF00A03E1AEEC1DF0120023
:103B100096EC1DF0120041C0F6FF42C0F7FF09000D
:103B2000F6CF41F0F7CF42F0F5501200470EF76E96
:103B30000950E00F040DF350B20FF66ED8B0F72A1B
:103B40000900F5CF3DF00900F5CF3EF00900F5CFB3
:103B50003FF00900F550030F406E12003B0EF76E68
:103B600043504324B60FF66ED8B0F72A0900F5CFBC
:103B700041F00900F5CF42F012003C0EF76E4350C1
:103B8000120DF3507A0FF66ED8B0F72A0900F5CF70
:103B900009F000EE2AF00900F550EE6208D0092E77
:103BA000FAD70250031404140514010F02E0D89050
:103BB0001200D8801200C03BEC3B143C323C563C17
:103BC000484F57204D414E592042495453204152AD
:103BD0004520544845524520494E204F4E452047E8
:103BE00049474142595445202020F000434F4D5051
:103BF000414E59205448415420494E56454E544553
:103C00004420544845205452414E534953544F5236
:103C1000202020F056414E20474F47485320594F0F
:103C2000554E4745522042524F544845522020207D
:103C3000F00046495253542050524F424520544FB1
:103C4000204F524249542041524F554E44204D413D
:103C50005253202020F0424553542053454C4C49A8
:103C60004E47204D555349432041525449535453D4
:103C700020494E205553202020F00A383538393954
:103C80003334353932202020202020000942454C91
:103C90004C204C414253202020202020200004545E
:103CA00048454F20202020202020202020202000B8
:103CB000094D4152494E45522039202020202020D4
:103CC000200007424541544C45532020202020200D
:103CD000202020000701A66A068A006AC9EC19F0B4
:103CE000326A2A6A2B6A2C6A2D6A2E6A2F6A306A17
:103CF000316AE5EC1EF006A4FED70694332A335051
:103D00001F0B15E13BEC1FF0D8B04EEF1FF0E5ECB8
:103D10001EF0FF0E32A2F00B32B20F0B32A0CC0B12
:103D200032B0330B33AA0F13E81E33BA0F1703B0A8
:103D3000346A03B013D01650070B10E1342AD8B4FC
:103D400034683450FE0FFD0F09E332502A0FE96E3C
:103D5000EA6AEF5003E0EF06E5EC1EF004B0356AC6
:103D600004B014D01650070B11E1352AD8B43568C9
:103D70003550FE0FFD0F0AE332502A0FE96EEA6A52
:103D8000EF50CE0FEBE2EF2AE5EC1EF000A204D0DC
:103D900000923252D8A4320600A804D00098322AE9
:103DA00032B432067BEF1EF0006B016B026B036BCB
:103DB000046B056B066B076B086B096B0A6B0B6B6F
:103DC0000C6B0D6B0E6B0F6B1200D4EC1EF010EE33
:103DD0002AF0C00E146E4C0EF66E3F0EF76EE650D3
:103DE000F626D8B0F72A09001450F514001309007C
:103DF0001450F514011309001450F51402130900AE
:103E00001450F514031309001450F5140413090099
:103E10001450F514051309001450F5140613090085
:103E20001450F514071309001450F5140813090071
:103E30001450F514091309001450F5140A1309005D
:103E40001450F5140B1309001450F5140C13090049
:103E50001450F5140D1309001450F5140E13090035
:103E60001450F5140F13D8901432D8901432D8A0EF
:103E7000EBEF1EF01200D890280E2A621200120EEC
:103E80002B621200220E2C6212001A0E2D621200FA
:103E900003A0120004A01200D8801200E5EC1EF06E
:103EA0009CEC1FF0D4EC1EF09AEC1FF0E5EC1EF039
:103EB0009EEC1FF0D4EC1EF09AEC1FF0E5EC1EF027
:103EC0009EEC1FF0D4EC1EF09AEC1FF0E5EC1EF017
:103ED0009EEC1FF0D4EC1EF09AEC1FF0E5EC1EF007
:103EE0009EEC1FF0D4EC1EF09AEC1FF0E5EC1EF0F7
:103EF0009EEC1FF0D4EC1EF09AEC1FF00F0E0F1783
:103F000006EE00F0BE0EF66E430EF76ED7EC21F013
:103F1000590EEE6E430EEE6E050E146EC2EC21F0DD
:103F2000EE6ECEEC21F0EE6ECEEC21F0EE6EEE6A8F
:103F300083EF21F0280E03D0C80E01D0500E156E6D
:103F400006A4FED70694152EFBD7120000F785B500
:103F500095F700000000000000000000692AAEA8EC
:103F6000A20BF70CF500A0A6AA822059B25D243856
:103F7000AE281055A6C6A11E2A6C235492E0A92291
:103F80002C744A4C614CCA7169282A9B51F6E0583E
:103F9000AC321BB0141DAC16A0E433250701A66A91
:103FA000068A006A000E2A6E000E2B6E55EC20F079
:103FB0002DEC21F000A204D000922C062CBE2C2A5D
:103FC00000A431D000942C50D8B42A8EE806D8B47E
:103FD0002A8CE806D8B42A8AE806D8B42A88E806E3
:103FE000D8B42A86E806D8B42A84E806D8B42A8247
:103FF000E806D8B42A80E806D8B42B8EE806D8B4F0
:104000002B8CE806D8B42B8AE806D8B42B88E806AF
:10401000D8B42B86E806D8B42B84E806D8B42B8213
:10402000E806D8B42B8000A631D000962C50D8B426
:104030002A9EE806D8B42A9CE806D8B42A9AE8064C
:10404000D8B42A98E806D8B42A96E806D8B42A94B0
:10405000E806D8B42A92E806D8B42A90E806D8B47C
:104060002B9EE806D8B42B9CE806D8B42B9AE80619
:10407000D8B42B98E806D8B42B96E806D8B42B947D
:10408000E806D8B42B92E806D8B42B9000A804D048
:1040900000982C2A2CB82C062A50370A05E12B5000
:1040A000430A02E13DEF21F081D706A4FED7069432
:1040B000C9EC19F0C00E2ABE00132ABE0113300E3F
:1040C0002ABC00132ABC01130C0E2ABA00132ABA08
:1040D0000113030E2AB800132AB80113C00E2AB622
:1040E00002132AB60313300E2AB402132AB40313A0
:1040F0000C0E2AB202132AB20313030E2AB00213C3
:104100002AB00313C00E2BBE04132BBE0513300EB2
:104110002BBC04132BBC05130C0E2BBA04132BBAA7
:104120000513030E2BB804132BB80513C00E2BB6C2
:1041300006132BB60713300E2BB406132BB407133C
:104140000C0E2BB206132BB20713030E2BB0061363
:104150002BB007132CC014F01452D8A405D0C00EF5
:1041600007EE00F017EE01F01406D8A405D0300ECB
:1041700007EE00F017EE01F01406D8A405D00C0EDF
:1041800007EE00F017EE01F01406D8A405D0030ED8
:1041900007EE00F017EE01F01406D8A405D0C00E0B
:1041A00007EE02F017EE03F01406D8A405D0300E87
:1041B00007EE02F017EE03F01406D8A405D00C0E9B
:1041C00007EE02F017EE03F01406D8A405D0030E94
:1041D00007EE02F017EE03F01406D8A405D0C00EC7
:1041E00007EE04F017EE05F01406D8A405D0300E43
:1041F00007EE04F017EE05F01406D8A405D00C0E57
:1042000007EE04F017EE05F01406D8A405D0030E4F
:1042100007EE04F017EE05F01406D8A405D0C00E82
:1042200007EE06F017EE07F01406D8A405D0300EFE
:1042300007EE06F017EE07F01406D8A405D00C0E12
:1042400007EE06F017EE07F01406D8A405D0030E0B
:1042500007EE06F017EE07F012002E2A2EAA05D060
:104260002EB8550B2EA8AA0BEF1A2EBA05D02EA8E1
:10427000550B2EB8AA0BE71A120055EC20F0080EC9
:10428000146E100E156E06A4FED70694152EFBD7DD
:104290000EC70FF70DC70EF70CC70DF70BC70CF7BE
:1042A0000AC70BF709C70AF708C709F707C708F7CE
:1042B00006C707F705C706F704C705F703C704F7DE
:1042C00002C703F701C702F700C701F7006B142EFE
:1042D000D8D706EE00F0BE0EF66E430EF76ED7ECA2
:1042E00021F04F0EEE6E4F0EEE6E090E146EC2EC04
:1042F00021F0EE6ECEEC21F0EE6ECEEC21F0EE6E03
:10430000EE6A83EF21F0006A086BC6EC19F0140E18
:10431000256E8CEC21F0FDD70701266A06EE00F031
:10432000060E276EC6EC19F017EE11F0EE50D8B459
:104330001200B0EC21F0255006A4FED70694E82E1A
:10434000FBD717EE00F027EE10F0080ED890DE36FF
:10435000E636E82EFBD7272EEED706BC1200E0D7B4
:10436000E00F0A0DF350F20FF66EF450D8B0010FC3
:10437000430FF76E090E0900E1AAF5CFE6FFE82E1C
:10438000FAD712001AC030F71BC031F71AC032F743
:104390001BC033F786EC15F0142EFCD71A0E146EE2
:1043A0004AEC1BF01F0B1464E60F410F12000900CA
:1043B000F5CFEFFFEE52D8A4FAD7ED5012002059F6
:1043C0004F555220434F4445200017EE40F0E00F78
:1043D0000A0DF350F20FF66EF450D8B0010F430FF0
:1043E000F76E090E0900E1AAF5CFE6FFE82EFAD72D
:1043F0001200000000000000000000003830301003
:1044000000303800000028280000000000000000F4
:1044100028287C287C2828000000103C503814787C
:104420001000000060640810204C0C0000002050B8
:1044300020504C4834000000101000000000000024
:10444000000008102020201008000000201008089C
:104450000810200000000028107C10280000000038
:104460000010107C10100000000000000000000090
:10447000102000000000007C000000000000000090
:104480000000000020000000000408102040000090
:10449000000038444C5464443800000010301010C0
:1044A0001010380000003844040810207C00000080
:1044B00038440418044438000000040C14247C041C
:1044C000040000007C4040780404780000001820BC
:1044D00040784444380000007C040810202020006C
:1044E0000000384444384444380000003844443C18
:1044F0000408300000000020000000200000000040
:104500000020000000204000000008102040201083
:104510000800000000007C007C000000000020106B
:10452000080408102000000038440408100010009F
:10453000000038444C544C403C00000010284444D7
:104540007C444400000078444478444478000000EF
:1045500038444040404438000000704844444448D7
:10456000700000007C40407840407C0000007C40AF
:1045700040784040400000003844405C44443800EB
:1045800000004444447C44444400000038101010AF
:104590001010380000000404040404443800000033
:1045A0004448506050484400000040404040404073
:1045B0007C000000446C54444444440000004444E3
:1045C0004464544C4400000038444444444438009B
:1045D000000078444478404040000000384444449F
:1045E00054483400000078444478504844000000A7
:1045F000384440380444380000007C10101010107B
:104600001000000044444444444438000000444442
:10461000444444281000000044444444546C440082
:10462000000044442810284444000000444428105A
:104630001010100000007C04081020407C000000D6
:10464000181010101010180000000040201008046E
:104650000000000030101010101030000000102872
:104660004400000000000000000000000000007C8A
:10467000000020100000000000000000205048440E
:104680007C444400000040404078444478000000EE
:104690003C4040402010060000000404043C444418
:1046A0003C000000000038447C403C00000018241E
:1046B00020702020200000003840405C4424180076
:1046C0000000404078444444440000001838003062
:1046D0001010380000001000301010101010600092
:1046E0004040444870484400000020404040484456
:1046F0007C0000000000685454545400000008443A
:1047000064544C440400000030684C4C48380000AD
:1047100000000000784444447840400000003C44DD
:1047200044443C0404003078786050484400000061
:10473000384424104844780000007C545410103849
:104740003800000040444444484830000000000065
:10475000444444281000000000004444546C4400C9
:1047600000000000442810284400000000004444D9
:10477000443C0404380000007C0810207C00000049
:104780000810102010100800000010101010101059
:10479000100000002010100810102000000020540D
:1047A00008000000000000007C44444444447C00B5
:1047B00000000000000100000000000000000000F8
:1047C00000000000000000000000000000000000E9
:1047D00000000000000000000000000000000000D9
:1047E00000000000000000000000000000000000C9
:1047F0000000777770145DDDC0125777001055DC2C
:10480000000E5570000C5540000A7550000C77548E
:10481000000E77750010777740120000000000004E
:104820000000000000000000000000000000000088
:104830000000000000005C0000067540000A75D012
:10484000000C75000008400000025740000A774045
:10485000000A55000008500000045DDC000E75C021
:10486000000A5D40000A77000008740000067770B7
:10487000000C5DD0000C775C000E5D000008540059
:104880000006700000045700000855C0000A5DC013
:10489000000A7570000C75DC000E7750000C078E56
:1048A0000701A66A068AC9EC19F0380E006F440E9B
:1048B000016F040E026F080E036F100E046F100ECE
:1048C000066F0C0E3B6E050E146EC2EC21F03C6EB2
:1048D000CEEC21F0406ECEEC21F0446E090E146E49
:1048E000C2EC21F03D6ECEEC21F0416ECEEC21F019
:1048F000456E0D0E146EC2EC21F03E6ECEEC21F032
:10490000426ECEEC21F0466E110E146EC2EC21F018
:104910003F6ECEEC21F0436ECEEC21F0476E200EC0
:10492000EE6EEE6EEE6EEE6E3A6A00EE2AF0200E3D
:10493000EE6EEE6EEE6EEE6EEE6EEE6EEE6EEE6E97
:10494000EE6EEE6EEE6EEE6EEE6EEE6EEE6EEE6E87
:10495000ECEC24F0D8B017EF25F003B012D029EC1E
:104960001DF0200A06E0200A5A0A05E05A0A010F43
:1049700003D0410E01D0200EEF6EC8EC1CF063ECAA
:104980001DF004B012D029EC1DF0200A08E0200A26
:10499000410A03E0410AFF0F03D0200E01D05A0E56
:1049A000EF6E8BEC1CF063EC1DF000A208D00092BF
:1049B0003A5205E03A062FEC1DF0A8EF24F000A8CB
:1049C00009D000983B043A6005D03A2A05EC1DF066
:1049D000A8EF24F0A8EF24F0D8902A503C621200EF
:1049E0002B503D6212002C503E6212002D503F624F
:1049F00012002E50406212002F50416212003050BF
:104A0000426212003150436212003250446212007E
:104A100033504562120034504662120035504762EE
:104A2000120003A0120004A01200D88012009CEC17
:104A30001FF0D4EC1EF006EE00F0200EEE6E630EBA
:104A4000EE6E6F0EEE6E6E0EEE6E670EEE6E720E08
:104A5000EE6E610EEE6E740EEE6E750EEE6E6C0EF8
:104A6000EE6E610EEE6E740EEE6E690EEE6E6F0EF1
:104A7000EE6E6E0EEE6E730EEE6E210EEE6E000E8C
:064A8000EE6E83EF21F051
:00000001FF
